{
  "contractName": "temperatureBasedNft",
  "abi": [
    {
      "inputs": [
        {
          "internalType": "string",
          "name": "_name",
          "type": "string"
        },
        {
          "internalType": "string",
          "name": "_symbol",
          "type": "string"
        }
      ],
      "stateMutability": "nonpayable",
      "type": "constructor"
    },
    {
      "anonymous": false,
      "inputs": [
        {
          "indexed": true,
          "internalType": "address",
          "name": "owner",
          "type": "address"
        },
        {
          "indexed": true,
          "internalType": "address",
          "name": "approved",
          "type": "address"
        },
        {
          "indexed": true,
          "internalType": "uint256",
          "name": "tokenId",
          "type": "uint256"
        }
      ],
      "name": "Approval",
      "type": "event"
    },
    {
      "anonymous": false,
      "inputs": [
        {
          "indexed": true,
          "internalType": "address",
          "name": "owner",
          "type": "address"
        },
        {
          "indexed": true,
          "internalType": "address",
          "name": "operator",
          "type": "address"
        },
        {
          "indexed": false,
          "internalType": "bool",
          "name": "approved",
          "type": "bool"
        }
      ],
      "name": "ApprovalForAll",
      "type": "event"
    },
    {
      "anonymous": false,
      "inputs": [
        {
          "indexed": false,
          "internalType": "string",
          "name": "description",
          "type": "string"
        }
      ],
      "name": "LogNewProvableQuery",
      "type": "event"
    },
    {
      "anonymous": false,
      "inputs": [
        {
          "indexed": false,
          "internalType": "string",
          "name": "temp",
          "type": "string"
        }
      ],
      "name": "LogUpdated",
      "type": "event"
    },
    {
      "anonymous": false,
      "inputs": [
        {
          "indexed": true,
          "internalType": "address",
          "name": "from",
          "type": "address"
        },
        {
          "indexed": true,
          "internalType": "address",
          "name": "to",
          "type": "address"
        },
        {
          "indexed": true,
          "internalType": "uint256",
          "name": "tokenId",
          "type": "uint256"
        }
      ],
      "name": "Transfer",
      "type": "event"
    },
    {
      "inputs": [
        {
          "internalType": "address",
          "name": "to",
          "type": "address"
        },
        {
          "internalType": "uint256",
          "name": "tokenId",
          "type": "uint256"
        }
      ],
      "name": "approve",
      "outputs": [],
      "stateMutability": "nonpayable",
      "type": "function"
    },
    {
      "inputs": [
        {
          "internalType": "address",
          "name": "owner",
          "type": "address"
        }
      ],
      "name": "balanceOf",
      "outputs": [
        {
          "internalType": "uint256",
          "name": "",
          "type": "uint256"
        }
      ],
      "stateMutability": "view",
      "type": "function"
    },
    {
      "inputs": [],
      "name": "baseURI",
      "outputs": [
        {
          "internalType": "string",
          "name": "",
          "type": "string"
        }
      ],
      "stateMutability": "view",
      "type": "function"
    },
    {
      "inputs": [
        {
          "internalType": "uint256",
          "name": "tokenId",
          "type": "uint256"
        }
      ],
      "name": "getApproved",
      "outputs": [
        {
          "internalType": "address",
          "name": "",
          "type": "address"
        }
      ],
      "stateMutability": "view",
      "type": "function"
    },
    {
      "inputs": [
        {
          "internalType": "address",
          "name": "owner",
          "type": "address"
        },
        {
          "internalType": "address",
          "name": "operator",
          "type": "address"
        }
      ],
      "name": "isApprovedForAll",
      "outputs": [
        {
          "internalType": "bool",
          "name": "",
          "type": "bool"
        }
      ],
      "stateMutability": "view",
      "type": "function"
    },
    {
      "inputs": [],
      "name": "name",
      "outputs": [
        {
          "internalType": "string",
          "name": "",
          "type": "string"
        }
      ],
      "stateMutability": "view",
      "type": "function"
    },
    {
      "inputs": [],
      "name": "owner",
      "outputs": [
        {
          "internalType": "address",
          "name": "",
          "type": "address"
        }
      ],
      "stateMutability": "view",
      "type": "function"
    },
    {
      "inputs": [
        {
          "internalType": "uint256",
          "name": "tokenId",
          "type": "uint256"
        }
      ],
      "name": "ownerOf",
      "outputs": [
        {
          "internalType": "address",
          "name": "",
          "type": "address"
        }
      ],
      "stateMutability": "view",
      "type": "function"
    },
    {
      "inputs": [
        {
          "internalType": "address",
          "name": "from",
          "type": "address"
        },
        {
          "internalType": "address",
          "name": "to",
          "type": "address"
        },
        {
          "internalType": "uint256",
          "name": "tokenId",
          "type": "uint256"
        }
      ],
      "name": "safeTransferFrom",
      "outputs": [],
      "stateMutability": "nonpayable",
      "type": "function"
    },
    {
      "inputs": [
        {
          "internalType": "address",
          "name": "from",
          "type": "address"
        },
        {
          "internalType": "address",
          "name": "to",
          "type": "address"
        },
        {
          "internalType": "uint256",
          "name": "tokenId",
          "type": "uint256"
        },
        {
          "internalType": "bytes",
          "name": "_data",
          "type": "bytes"
        }
      ],
      "name": "safeTransferFrom",
      "outputs": [],
      "stateMutability": "nonpayable",
      "type": "function"
    },
    {
      "inputs": [
        {
          "internalType": "address",
          "name": "operator",
          "type": "address"
        },
        {
          "internalType": "bool",
          "name": "approved",
          "type": "bool"
        }
      ],
      "name": "setApprovalForAll",
      "outputs": [],
      "stateMutability": "nonpayable",
      "type": "function"
    },
    {
      "inputs": [
        {
          "internalType": "bytes4",
          "name": "interfaceId",
          "type": "bytes4"
        }
      ],
      "name": "supportsInterface",
      "outputs": [
        {
          "internalType": "bool",
          "name": "",
          "type": "bool"
        }
      ],
      "stateMutability": "view",
      "type": "function"
    },
    {
      "inputs": [],
      "name": "symbol",
      "outputs": [
        {
          "internalType": "string",
          "name": "",
          "type": "string"
        }
      ],
      "stateMutability": "view",
      "type": "function"
    },
    {
      "inputs": [],
      "name": "temperature",
      "outputs": [
        {
          "internalType": "uint256",
          "name": "",
          "type": "uint256"
        }
      ],
      "stateMutability": "view",
      "type": "function"
    },
    {
      "inputs": [
        {
          "internalType": "uint256",
          "name": "index",
          "type": "uint256"
        }
      ],
      "name": "tokenByIndex",
      "outputs": [
        {
          "internalType": "uint256",
          "name": "",
          "type": "uint256"
        }
      ],
      "stateMutability": "view",
      "type": "function"
    },
    {
      "inputs": [
        {
          "internalType": "address",
          "name": "owner",
          "type": "address"
        },
        {
          "internalType": "uint256",
          "name": "index",
          "type": "uint256"
        }
      ],
      "name": "tokenOfOwnerByIndex",
      "outputs": [
        {
          "internalType": "uint256",
          "name": "",
          "type": "uint256"
        }
      ],
      "stateMutability": "view",
      "type": "function"
    },
    {
      "inputs": [
        {
          "internalType": "uint256",
          "name": "tokenId",
          "type": "uint256"
        }
      ],
      "name": "tokenURI",
      "outputs": [
        {
          "internalType": "string",
          "name": "",
          "type": "string"
        }
      ],
      "stateMutability": "view",
      "type": "function"
    },
    {
      "inputs": [],
      "name": "totalSupply",
      "outputs": [
        {
          "internalType": "uint256",
          "name": "",
          "type": "uint256"
        }
      ],
      "stateMutability": "view",
      "type": "function"
    },
    {
      "inputs": [
        {
          "internalType": "address",
          "name": "from",
          "type": "address"
        },
        {
          "internalType": "address",
          "name": "to",
          "type": "address"
        },
        {
          "internalType": "uint256",
          "name": "tokenId",
          "type": "uint256"
        }
      ],
      "name": "transferFrom",
      "outputs": [],
      "stateMutability": "nonpayable",
      "type": "function"
    },
    {
      "inputs": [
        {
          "internalType": "address",
          "name": "_to",
          "type": "address"
        },
        {
          "internalType": "uint256",
          "name": "_id",
          "type": "uint256"
        },
        {
          "internalType": "string",
          "name": "_uri",
          "type": "string"
        }
      ],
      "name": "mintNft",
      "outputs": [],
      "stateMutability": "nonpayable",
      "type": "function"
    },
    {
      "inputs": [
        {
          "internalType": "bytes32",
          "name": "myid",
          "type": "bytes32"
        },
        {
          "internalType": "string",
          "name": "result",
          "type": "string"
        }
      ],
      "name": "__callback",
      "outputs": [],
      "stateMutability": "nonpayable",
      "type": "function"
    },
    {
      "inputs": [
        {
          "internalType": "bytes32",
          "name": "_myid",
          "type": "bytes32"
        },
        {
          "internalType": "string",
          "name": "_result",
          "type": "string"
        },
        {
          "internalType": "bytes",
          "name": "_proof",
          "type": "bytes"
        }
      ],
      "name": "__callback",
      "outputs": [],
      "stateMutability": "nonpayable",
      "type": "function"
    },
    {
      "inputs": [],
      "name": "updateTemperature",
      "outputs": [],
      "stateMutability": "payable",
      "type": "function"
    }
  ],
  "bytecode": "0x60806040523480156200001157600080fd5b506040516200608738038062006087833981810160405260408110156200003757600080fd5b81019080805160405193929190846401000000008211156200005857600080fd5b838201915060208201858111156200006f57600080fd5b82518660018202830111640100000000821117156200008d57600080fd5b8083526020830192505050908051906020019080838360005b83811015620000c3578082015181840152602081019050620000a6565b50505050905090810190601f168015620000f15780820380516001836020036101000a031916815260200191505b50604052602001805160405193929190846401000000008211156200011557600080fd5b838201915060208201858111156200012c57600080fd5b82518660018202830111640100000000821117156200014a57600080fd5b8083526020830192505050908051906020019080838360005b838110156200018057808201518184015260208101905062000163565b50505050905090810190601f168015620001ae5780820380516001836020036101000a031916815260200191505b506040525050508181620001cf6301ffc9a760e01b620002a460201b60201c565b8160069080519060200190620001e7929190620015f5565b50806007908051906020019062000200929190620015f5565b50620002196380ac58cd60e01b620002a460201b60201c565b62000231635b5e139f60e01b620002a460201b60201c565b6200024963780e9d6360e01b620002a460201b60201c565b505033601060006101000a81548173ffffffffffffffffffffffffffffffffffffffff021916908373ffffffffffffffffffffffffffffffffffffffff1602179055506200029c620003ad60201b60201c565b50506200169b565b63ffffffff60e01b817bffffffffffffffffffffffffffffffffffffffffffffffffffffffff1916141562000341576040517f08c379a000000000000000000000000000000000000000000000000000000000815260040180806020018281038252601c8152602001807f4552433136353a20696e76616c696420696e746572666163652069640000000081525060200191505060405180910390fd5b6001600080837bffffffffffffffffffffffffffffffffffffffffffffffffffffffff19167bffffffffffffffffffffffffffffffffffffffffffffffffffffffff1916815260200190815260200160002060006101000a81548160ff02191690831515021790555050565b47620003f46040518060400160405280600c81526020017f576f6c6672616d416c70686100000000000000000000000000000000000000008152506200051960201b60201c565b11156200044d577fc4dc360d0a9c0677a3379ae0a3d81e887f761e65fdf3d7e00859d1bcd3c4738960405180806020018281038252604b8152602001806200603c604b913960600191505060405180910390a162000517565b7fc4dc360d0a9c0677a3379ae0a3d81e887f761e65fdf3d7e00859d1bcd3c47389604051808060200182810382526035815260200180620060076035913960400191505060405180910390a1620005156040518060400160405280600c81526020017f576f6c6672616d416c70686100000000000000000000000000000000000000008152506040518060400160405280601581526020017f74656d706572617475726520696e204d756d6261690000000000000000000000815250620008cc60201b60201c565b505b565b60008073ffffffffffffffffffffffffffffffffffffffff16600b60009054906101000a900473ffffffffffffffffffffffffffffffffffffffff1673ffffffffffffffffffffffffffffffffffffffff161480620005aa57506000620005a8600b60009054906101000a900473ffffffffffffffffffffffffffffffffffffffff1662000e4060201b60201c565b145b15620005c457620005c2600062000e4b60201b60201c565b505b600b60009054906101000a900473ffffffffffffffffffffffffffffffffffffffff1673ffffffffffffffffffffffffffffffffffffffff166338cc48316040518163ffffffff1660e01b8152600401602060405180830381600087803b1580156200062f57600080fd5b505af115801562000644573d6000803e3d6000fd5b505050506040513d60208110156200065b57600080fd5b810190808051906020019092919050505073ffffffffffffffffffffffffffffffffffffffff16600a60009054906101000a900473ffffffffffffffffffffffffffffffffffffffff1673ffffffffffffffffffffffffffffffffffffffff1614620007aa57600b60009054906101000a900473ffffffffffffffffffffffffffffffffffffffff1673ffffffffffffffffffffffffffffffffffffffff166338cc48316040518163ffffffff1660e01b8152600401602060405180830381600087803b1580156200072c57600080fd5b505af115801562000741573d6000803e3d6000fd5b505050506040513d60208110156200075857600080fd5b8101908080519060200190929190505050600a60006101000a81548173ffffffffffffffffffffffffffffffffffffffff021916908373ffffffffffffffffffffffffffffffffffffffff1602179055505b600a60009054906101000a900473ffffffffffffffffffffffffffffffffffffffff1673ffffffffffffffffffffffffffffffffffffffff1663524f3889836040518263ffffffff1660e01b81526004018080602001828103825283818151815260200191508051906020019080838360005b838110156200083a5780820151818401526020810190506200081d565b50505050905090810190601f168015620008685780820380516001836020036101000a031916815260200191505b5092505050602060405180830381600087803b1580156200088857600080fd5b505af11580156200089d573d6000803e3d6000fd5b505050506040513d6020811015620008b457600080fd5b81019080805190602001909291905050509050919050565b60008073ffffffffffffffffffffffffffffffffffffffff16600b60009054906101000a900473ffffffffffffffffffffffffffffffffffffffff1673ffffffffffffffffffffffffffffffffffffffff1614806200095d575060006200095b600b60009054906101000a900473ffffffffffffffffffffffffffffffffffffffff1662000e4060201b60201c565b145b15620009775762000975600062000e4b60201b60201c565b505b600b60009054906101000a900473ffffffffffffffffffffffffffffffffffffffff1673ffffffffffffffffffffffffffffffffffffffff166338cc48316040518163ffffffff1660e01b8152600401602060405180830381600087803b158015620009e257600080fd5b505af1158015620009f7573d6000803e3d6000fd5b505050506040513d602081101562000a0e57600080fd5b810190808051906020019092919050505073ffffffffffffffffffffffffffffffffffffffff16600a60009054906101000a900473ffffffffffffffffffffffffffffffffffffffff1673ffffffffffffffffffffffffffffffffffffffff161462000b5d57600b60009054906101000a900473ffffffffffffffffffffffffffffffffffffffff1673ffffffffffffffffffffffffffffffffffffffff166338cc48316040518163ffffffff1660e01b8152600401602060405180830381600087803b15801562000adf57600080fd5b505af115801562000af4573d6000803e3d6000fd5b505050506040513d602081101562000b0b57600080fd5b8101908080519060200190929190505050600a60006101000a81548173ffffffffffffffffffffffffffffffffffffffff021916908373ffffffffffffffffffffffffffffffffffffffff1602179055505b6000600a60009054906101000a900473ffffffffffffffffffffffffffffffffffffffff1673ffffffffffffffffffffffffffffffffffffffff1663524f3889856040518263ffffffff1660e01b81526004018080602001828103825283818151815260200191508051906020019080838360005b8381101562000bef57808201518184015260208101905062000bd2565b50505050905090810190601f16801562000c1d5780820380516001836020036101000a031916815260200191505b5092505050602060405180830381600087803b15801562000c3d57600080fd5b505af115801562000c52573d6000803e3d6000fd5b505050506040513d602081101562000c6957600080fd5b8101908080519060200190929190505050905062030d403a02670de0b6b3a76400000181111562000ca1576000801b91505062000e3a565b600a60009054906101000a900473ffffffffffffffffffffffffffffffffffffffff1673ffffffffffffffffffffffffffffffffffffffff1663adf59f9982600087876040518563ffffffff1660e01b8152600401808481526020018060200180602001838103835285818151815260200191508051906020019080838360005b8381101562000d3f57808201518184015260208101905062000d22565b50505050905090810190601f16801562000d6d5780820380516001836020036101000a031916815260200191505b50838103825284818151815260200191508051906020019080838360005b8381101562000da857808201518184015260208101905062000d8b565b50505050905090810190601f16801562000dd65780820380516001836020036101000a031916815260200191505b50955050505050506020604051808303818588803b15801562000df857600080fd5b505af115801562000e0d573d6000803e3d6000fd5b50505050506040513d602081101562000e2557600080fd5b81019080805190602001909291905050509150505b92915050565b6000813b9050919050565b600062000e5d62000e6460201b60201c565b9050919050565b60008062000e8c731d3b2638a7cc9f2cb3d298a3da7a90b67e5506ed62000e4060201b60201c565b111562000f3857731d3b2638a7cc9f2cb3d298a3da7a90b67e5506ed600b60006101000a81548173ffffffffffffffffffffffffffffffffffffffff021916908373ffffffffffffffffffffffffffffffffffffffff16021790555062000f2e6040518060400160405280600b81526020017f6574685f6d61696e6e6574000000000000000000000000000000000000000000815250620015d960201b60201c565b60019050620015d6565b600062000f5f73c03a2615d5efaf5f49f60b7bb6583eaec212fdf162000e4060201b60201c565b11156200100b5773c03a2615d5efaf5f49f60b7bb6583eaec212fdf1600b60006101000a81548173ffffffffffffffffffffffffffffffffffffffff021916908373ffffffffffffffffffffffffffffffffffffffff160217905550620010016040518060400160405280600c81526020017f6574685f726f707374656e330000000000000000000000000000000000000000815250620015d960201b60201c565b60019050620015d6565b60006200103273b7a07bcf2ba2f2703b24c0691b5278999c59ac7e62000e4060201b60201c565b1115620010de5773b7a07bcf2ba2f2703b24c0691b5278999c59ac7e600b60006101000a81548173ffffffffffffffffffffffffffffffffffffffff021916908373ffffffffffffffffffffffffffffffffffffffff160217905550620010d46040518060400160405280600981526020017f6574685f6b6f76616e0000000000000000000000000000000000000000000000815250620015d960201b60201c565b60019050620015d6565b60006200110573146500cfd35b22e4a392fe0adc06de1a1368ed4862000e4060201b60201c565b1115620011b15773146500cfd35b22e4a392fe0adc06de1a1368ed48600b60006101000a81548173ffffffffffffffffffffffffffffffffffffffff021916908373ffffffffffffffffffffffffffffffffffffffff160217905550620011a76040518060400160405280600b81526020017f6574685f72696e6b656279000000000000000000000000000000000000000000815250620015d960201b60201c565b60019050620015d6565b6000620011d873a2998efd205fb9d4b4963afb70778d6354ad3a4162000e4060201b60201c565b1115620012845773a2998efd205fb9d4b4963afb70778d6354ad3a41600b60006101000a81548173ffffffffffffffffffffffffffffffffffffffff021916908373ffffffffffffffffffffffffffffffffffffffff1602179055506200127a6040518060400160405280600a81526020017f6574685f676f65726c6900000000000000000000000000000000000000000000815250620015d960201b60201c565b60019050620015d6565b6000620012ab7390a0f94702c9630036fb9846b52bf31a1c991a8462000e4060201b60201c565b111562001357577390a0f94702c9630036fb9846b52bf31a1c991a84600b60006101000a81548173ffffffffffffffffffffffffffffffffffffffff021916908373ffffffffffffffffffffffffffffffffffffffff1602179055506200134d6040518060400160405280600b81526020017f6273635f6d61696e6e6574000000000000000000000000000000000000000000815250620015d960201b60201c565b60019050620015d6565b60006200137e73816ec2af1b56183f82f8c05759e99fec3c3de60962000e4060201b60201c565b11156200142a5773816ec2af1b56183f82f8c05759e99fec3c3de609600b60006101000a81548173ffffffffffffffffffffffffffffffffffffffff021916908373ffffffffffffffffffffffffffffffffffffffff160217905550620014206040518060400160405280600f81526020017f706f6c79676f6e5f6d61696e6e65740000000000000000000000000000000000815250620015d960201b60201c565b60019050620015d6565b600062001451736f485c8bf6fc43ea212e93bbf8ce046c7f1cb47562000e4060201b60201c565b1115620014b757736f485c8bf6fc43ea212e93bbf8ce046c7f1cb475600b60006101000a81548173ffffffffffffffffffffffffffffffffffffffff021916908373ffffffffffffffffffffffffffffffffffffffff16021790555060019050620015d6565b6000620014de7320e12a1f859b3feae5fb2a0a32c18f5a65555bbf62000e4060201b60201c565b111562001544577320e12a1f859b3feae5fb2a0a32c18f5a65555bbf600b60006101000a81548173ffffffffffffffffffffffffffffffffffffffff021916908373ffffffffffffffffffffffffffffffffffffffff16021790555060019050620015d6565b60006200156b7351efaf4c8b3c9afbd5ab9f4bbc82784ab6ef8faa62000e4060201b60201c565b1115620015d1577351efaf4c8b3c9afbd5ab9f4bbc82784ab6ef8faa600b60006101000a81548173ffffffffffffffffffffffffffffffffffffffff021916908373ffffffffffffffffffffffffffffffffffffffff16021790555060019050620015d6565b600090505b90565b80600c9080519060200190620015f1929190620015f5565b5050565b828054600181600116156101000203166002900490600052602060002090601f016020900481019282601f106200163857805160ff191683800117855562001669565b8280016001018555821562001669579182015b82811115620016685782518255916020019190600101906200164b565b5b5090506200167891906200167c565b5090565b5b80821115620016975760008160009055506001016200167d565b5090565b61495c80620016ab6000396000f3fe6080604052600436106101405760003560e01c80636352211e116100b65780639a6a009b1161006f5780639a6a009b14610954578063a22cb46514610a46578063adccea1214610aa3578063b88d4fde14610ace578063c87b56dd14610be0578063e985e9c514610c9457610140565b80636352211e1461071f578063671ecfd0146107845780636c0360eb1461078e57806370a082311461081e5780638da5cb5b1461088357806395d89b41146108c457610140565b806323b872dd1161010857806323b872dd1461033057806327dc297e146103ab5780632f745c591461047d57806338bbfa50146104ec57806342842e0e146106555780634f6ccce7146106d057610140565b806301ffc9a71461014557806306fdde03146101b5578063081812fc14610245578063095ea7b3146102aa57806318160ddd14610305575b600080fd5b34801561015157600080fd5b5061019d6004803603602081101561016857600080fd5b8101908080357bffffffffffffffffffffffffffffffffffffffffffffffffffffffff19169060200190929190505050610d1b565b60405180821515815260200191505060405180910390f35b3480156101c157600080fd5b506101ca610d82565b6040518080602001828103825283818151815260200191508051906020019080838360005b8381101561020a5780820151818401526020810190506101ef565b50505050905090810190601f1680156102375780820380516001836020036101000a031916815260200191505b509250505060405180910390f35b34801561025157600080fd5b5061027e6004803603602081101561026857600080fd5b8101908080359060200190929190505050610e24565b604051808273ffffffffffffffffffffffffffffffffffffffff16815260200191505060405180910390f35b3480156102b657600080fd5b50610303600480360360408110156102cd57600080fd5b81019080803573ffffffffffffffffffffffffffffffffffffffff16906020019092919080359060200190929190505050610ebf565b005b34801561031157600080fd5b5061031a611003565b6040518082815260200191505060405180910390f35b34801561033c57600080fd5b506103a96004803603606081101561035357600080fd5b81019080803573ffffffffffffffffffffffffffffffffffffffff169060200190929190803573ffffffffffffffffffffffffffffffffffffffff16906020019092919080359060200190929190505050611014565b005b3480156103b757600080fd5b5061047b600480360360408110156103ce57600080fd5b8101908080359060200190929190803590602001906401000000008111156103f557600080fd5b82018360208201111561040757600080fd5b8035906020019184600183028401116401000000008311171561042957600080fd5b91908080601f016020809104026020016040519081016040528093929190818152602001838380828437600081840152601f19601f82011690508083019250505050505050919291929050505061108a565b005b34801561048957600080fd5b506104d6600480360360408110156104a057600080fd5b81019080803573ffffffffffffffffffffffffffffffffffffffff169060200190929190803590602001909291905050506111c6565b6040518082815260200191505060405180910390f35b3480156104f857600080fd5b506106536004803603606081101561050f57600080fd5b81019080803590602001909291908035906020019064010000000081111561053657600080fd5b82018360208201111561054857600080fd5b8035906020019184600183028401116401000000008311171561056a57600080fd5b91908080601f016020809104026020016040519081016040528093929190818152602001838380828437600081840152601f19601f820116905080830192505050505050509192919290803590602001906401000000008111156105cd57600080fd5b8201836020820111156105df57600080fd5b8035906020019184600183028401116401000000008311171561060157600080fd5b91908080601f016020809104026020016040519081016040528093929190818152602001838380828437600081840152601f19601f820116905080830192505050505050509192919290505050611221565b005b34801561066157600080fd5b506106ce6004803603606081101561067857600080fd5b81019080803573ffffffffffffffffffffffffffffffffffffffff169060200190929190803573ffffffffffffffffffffffffffffffffffffffff16906020019092919080359060200190929190505050611244565b005b3480156106dc57600080fd5b50610709600480360360208110156106f357600080fd5b8101908080359060200190929190505050611264565b6040518082815260200191505060405180910390f35b34801561072b57600080fd5b506107586004803603602081101561074257600080fd5b8101908080359060200190929190505050611287565b604051808273ffffffffffffffffffffffffffffffffffffffff16815260200191505060405180910390f35b61078c6112be565b005b34801561079a57600080fd5b506107a3611416565b6040518080602001828103825283818151815260200191508051906020019080838360005b838110156107e35780820151818401526020810190506107c8565b50505050905090810190601f1680156108105780820380516001836020036101000a031916815260200191505b509250505060405180910390f35b34801561082a57600080fd5b5061086d6004803603602081101561084157600080fd5b81019080803573ffffffffffffffffffffffffffffffffffffffff1690602001909291905050506114b8565b6040518082815260200191505060405180910390f35b34801561088f57600080fd5b5061089861158d565b604051808273ffffffffffffffffffffffffffffffffffffffff16815260200191505060405180910390f35b3480156108d057600080fd5b506108d96115b3565b6040518080602001828103825283818151815260200191508051906020019080838360005b838110156109195780820151818401526020810190506108fe565b50505050905090810190601f1680156109465780820380516001836020036101000a031916815260200191505b509250505060405180910390f35b34801561096057600080fd5b50610a446004803603606081101561097757600080fd5b81019080803573ffffffffffffffffffffffffffffffffffffffff16906020019092919080359060200190929190803590602001906401000000008111156109be57600080fd5b8201836020820111156109d057600080fd5b803590602001918460018302840111640100000000831117156109f257600080fd5b91908080601f016020809104026020016040519081016040528093929190818152602001838380828437600081840152601f19601f820116905080830192505050505050509192919290505050611655565b005b348015610a5257600080fd5b50610aa160048036036040811015610a6957600080fd5b81019080803573ffffffffffffffffffffffffffffffffffffffff169060200190929190803515159060200190929190505050611831565b005b348015610aaf57600080fd5b50610ab86119e7565b6040518082815260200191505060405180910390f35b348015610ada57600080fd5b50610bde60048036036080811015610af157600080fd5b81019080803573ffffffffffffffffffffffffffffffffffffffff169060200190929190803573ffffffffffffffffffffffffffffffffffffffff1690602001909291908035906020019092919080359060200190640100000000811115610b5857600080fd5b820183602082011115610b6a57600080fd5b80359060200191846001830284011164010000000083111715610b8c57600080fd5b91908080601f016020809104026020016040519081016040528093929190818152602001838380828437600081840152601f19601f8201169050808301925050505050505091929192905050506119ed565b005b348015610bec57600080fd5b50610c1960048036036020811015610c0357600080fd5b8101908080359060200190929190505050611a65565b6040518080602001828103825283818151815260200191508051906020019080838360005b83811015610c59578082015181840152602081019050610c3e565b50505050905090810190601f168015610c865780820380516001836020036101000a031916815260200191505b509250505060405180910390f35b348015610ca057600080fd5b50610d0360048036036040811015610cb757600080fd5b81019080803573ffffffffffffffffffffffffffffffffffffffff169060200190929190803573ffffffffffffffffffffffffffffffffffffffff169060200190929190505050611d36565b60405180821515815260200191505060405180910390f35b6000806000837bffffffffffffffffffffffffffffffffffffffffffffffffffffffff19167bffffffffffffffffffffffffffffffffffffffffffffffffffffffff1916815260200190815260200160002060009054906101000a900460ff169050919050565b606060068054600181600116156101000203166002900480601f016020809104026020016040519081016040528092919081815260200182805460018160011615610100020316600290048015610e1a5780601f10610def57610100808354040283529160200191610e1a565b820191906000526020600020905b815481529060010190602001808311610dfd57829003601f168201915b5050505050905090565b6000610e2f82611dca565b610e84576040517f08c379a000000000000000000000000000000000000000000000000000000000815260040180806020018281038252602c815260200180614801602c913960400191505060405180910390fd5b6004600083815260200190815260200160002060009054906101000a900473ffffffffffffffffffffffffffffffffffffffff169050919050565b6000610eca82611287565b90508073ffffffffffffffffffffffffffffffffffffffff168373ffffffffffffffffffffffffffffffffffffffff161415610f51576040517f08c379a00000000000000000000000000000000000000000000000000000000081526004018080602001828103825260218152602001806148b16021913960400191505060405180910390fd5b8073ffffffffffffffffffffffffffffffffffffffff16610f70611de7565b73ffffffffffffffffffffffffffffffffffffffff161480610f9f5750610f9e81610f99611de7565b611d36565b5b610ff4576040517f08c379a00000000000000000000000000000000000000000000000000000000081526004018080602001828103825260388152602001806147546038913960400191505060405180910390fd5b610ffe8383611def565b505050565b600061100f6002611ea8565b905090565b61102561101f611de7565b82611ebd565b61107a576040517f08c379a00000000000000000000000000000000000000000000000000000000081526004018080602001828103825260318152602001806148f66031913960400191505060405180910390fd5b611085838383611fb1565b505050565b6110926121f4565b73ffffffffffffffffffffffffffffffffffffffff163373ffffffffffffffffffffffffffffffffffffffff1614611115576040517f08c379a00000000000000000000000000000000000000000000000000000000081526004018080602001828103825260248152602001806148d26024913960400191505060405180910390fd5b611120816002612516565b600f819055507fe0e3127cdbd59a4024935a64def14336df79aaad960fae6299c54f91b5e1a09b816040518080602001828103825283818151815260200191508051906020019080838360005b8381101561118857808201518184015260208101905061116d565b50505050905090810190601f1680156111b55780820380516001836020036101000a031916815260200191505b509250505060405180910390a15050565b600061121982600160008673ffffffffffffffffffffffffffffffffffffffff1673ffffffffffffffffffffffffffffffffffffffff16815260200190815260200160002061261f90919063ffffffff16565b905092915050565b6000801b600d60008060001b815260200190815260200160002081905550505050565b61125f838383604051806020016040528060008152506119ed565b505050565b60008061127b83600261263990919063ffffffff16565b50905080915050919050565b60006112b7826040518060600160405280602981526020016147b66029913960026126659092919063ffffffff16565b9050919050565b476112fd6040518060400160405280600c81526020017f576f6c6672616d416c7068610000000000000000000000000000000000000000815250612684565b1115611353577fc4dc360d0a9c0677a3379ae0a3d81e887f761e65fdf3d7e00859d1bcd3c4738960405180806020018281038252604b815260200180614662604b913960600191505060405180910390a1611414565b7fc4dc360d0a9c0677a3379ae0a3d81e887f761e65fdf3d7e00859d1bcd3c4738960405180806020018281038252603581526020018061462d6035913960400191505060405180910390a16114126040518060400160405280600c81526020017f576f6c6672616d416c70686100000000000000000000000000000000000000008152506040518060400160405280601581526020017f74656d706572617475726520696e204d756d6261690000000000000000000000815250612a18565b505b565b606060098054600181600116156101000203166002900480601f0160208091040260200160405190810160405280929190818152602001828054600181600116156101000203166002900480156114ae5780601f10611483576101008083540402835291602001916114ae565b820191906000526020600020905b81548152906001019060200180831161149157829003601f168201915b5050505050905090565b60008073ffffffffffffffffffffffffffffffffffffffff168273ffffffffffffffffffffffffffffffffffffffff16141561153f576040517f08c379a000000000000000000000000000000000000000000000000000000000815260040180806020018281038252602a81526020018061478c602a913960400191505060405180910390fd5b611586600160008473ffffffffffffffffffffffffffffffffffffffff1673ffffffffffffffffffffffffffffffffffffffff168152602001908152602001600020612f62565b9050919050565b601060009054906101000a900473ffffffffffffffffffffffffffffffffffffffff1681565b606060078054600181600116156101000203166002900480601f01602080910402602001604051908101604052809291908181526020018280546001816001161561010002031660029004801561164b5780601f106116205761010080835404028352916020019161164b565b820191906000526020600020905b81548152906001019060200180831161162e57829003601f168201915b5050505050905090565b601060009054906101000a900473ffffffffffffffffffffffffffffffffffffffff1673ffffffffffffffffffffffffffffffffffffffff163373ffffffffffffffffffffffffffffffffffffffff1614611718576040517f08c379a00000000000000000000000000000000000000000000000000000000081526004018080602001828103825260098152602001807f4e6f74206f776e6572000000000000000000000000000000000000000000000081525060200191505060405180910390fd5b6105dc600f541015611775576040517f08c379a00000000000000000000000000000000000000000000000000000000081526004018080602001828103825260318152602001806146f76031913960400191505060405180910390fd5b600073ffffffffffffffffffffffffffffffffffffffff168373ffffffffffffffffffffffffffffffffffffffff161415611818576040517f08c379a00000000000000000000000000000000000000000000000000000000081526004018080602001828103825260118152602001807f4e6f742076616c6964206164647265737300000000000000000000000000000081525060200191505060405180910390fd5b6118228383612f77565b61182c8282612f95565b505050565b611839611de7565b73ffffffffffffffffffffffffffffffffffffffff168273ffffffffffffffffffffffffffffffffffffffff1614156118da576040517f08c379a00000000000000000000000000000000000000000000000000000000081526004018080602001828103825260198152602001807f4552433732313a20617070726f766520746f2063616c6c65720000000000000081525060200191505060405180910390fd5b80600560006118e7611de7565b73ffffffffffffffffffffffffffffffffffffffff1673ffffffffffffffffffffffffffffffffffffffff16815260200190815260200160002060008473ffffffffffffffffffffffffffffffffffffffff1673ffffffffffffffffffffffffffffffffffffffff16815260200190815260200160002060006101000a81548160ff0219169083151502179055508173ffffffffffffffffffffffffffffffffffffffff16611994611de7565b73ffffffffffffffffffffffffffffffffffffffff167f17307eab39ab6107e8899845ad3d59bd9653f200f220920489ca2b5937696c318360405180821515815260200191505060405180910390a35050565b600f5481565b6119fe6119f8611de7565b83611ebd565b611a53576040517f08c379a00000000000000000000000000000000000000000000000000000000081526004018080602001828103825260318152602001806148f66031913960400191505060405180910390fd5b611a5f8484848461301f565b50505050565b6060611a7082611dca565b611ac5576040517f08c379a000000000000000000000000000000000000000000000000000000000815260040180806020018281038252602f815260200180614882602f913960400191505060405180910390fd5b6060600860008481526020019081526020016000208054600181600116156101000203166002900480601f016020809104026020016040519081016040528092919081815260200182805460018160011615610100020316600290048015611b6e5780601f10611b4357610100808354040283529160200191611b6e565b820191906000526020600020905b815481529060010190602001808311611b5157829003601f168201915b505050505090506060611b7f611416565b9050600081511415611b95578192505050611d31565b600082511115611c665780826040516020018083805190602001908083835b60208310611bd75780518252602082019150602081019050602083039250611bb4565b6001836020036101000a03801982511681845116808217855250505050505090500182805190602001908083835b60208310611c285780518252602082019150602081019050602083039250611c05565b6001836020036101000a0380198251168184511680821785525050505050509050019250505060405160208183030381529060405292505050611d31565b80611c7085613091565b6040516020018083805190602001908083835b60208310611ca65780518252602082019150602081019050602083039250611c83565b6001836020036101000a03801982511681845116808217855250505050505090500182805190602001908083835b60208310611cf75780518252602082019150602081019050602083039250611cd4565b6001836020036101000a03801982511681845116808217855250505050505090500192505050604051602081830303815290604052925050505b919050565b6000600560008473ffffffffffffffffffffffffffffffffffffffff1673ffffffffffffffffffffffffffffffffffffffff16815260200190815260200160002060008373ffffffffffffffffffffffffffffffffffffffff1673ffffffffffffffffffffffffffffffffffffffff16815260200190815260200160002060009054906101000a900460ff16905092915050565b6000611de08260026131d890919063ffffffff16565b9050919050565b600033905090565b816004600083815260200190815260200160002060006101000a81548173ffffffffffffffffffffffffffffffffffffffff021916908373ffffffffffffffffffffffffffffffffffffffff160217905550808273ffffffffffffffffffffffffffffffffffffffff16611e6283611287565b73ffffffffffffffffffffffffffffffffffffffff167f8c5be1e5ebec7d5bd14f71427d1e84f3dd0314c0f7b2291e5b200ac8c7c3b92560405160405180910390a45050565b6000611eb6826000016131f2565b9050919050565b6000611ec882611dca565b611f1d576040517f08c379a000000000000000000000000000000000000000000000000000000000815260040180806020018281038252602c815260200180614728602c913960400191505060405180910390fd5b6000611f2883611287565b90508073ffffffffffffffffffffffffffffffffffffffff168473ffffffffffffffffffffffffffffffffffffffff161480611f9757508373ffffffffffffffffffffffffffffffffffffffff16611f7f84610e24565b73ffffffffffffffffffffffffffffffffffffffff16145b80611fa85750611fa78185611d36565b5b91505092915050565b8273ffffffffffffffffffffffffffffffffffffffff16611fd182611287565b73ffffffffffffffffffffffffffffffffffffffff161461203d576040517f08c379a00000000000000000000000000000000000000000000000000000000081526004018080602001828103825260298152602001806148596029913960400191505060405180910390fd5b600073ffffffffffffffffffffffffffffffffffffffff168273ffffffffffffffffffffffffffffffffffffffff1614156120c3576040517f08c379a00000000000000000000000000000000000000000000000000000000081526004018080602001828103825260248152602001806146ad6024913960400191505060405180910390fd5b6120ce838383613203565b6120d9600082611def565b61212a81600160008673ffffffffffffffffffffffffffffffffffffffff1673ffffffffffffffffffffffffffffffffffffffff16815260200190815260200160002061320890919063ffffffff16565b5061217c81600160008573ffffffffffffffffffffffffffffffffffffffff1673ffffffffffffffffffffffffffffffffffffffff16815260200190815260200160002061322290919063ffffffff16565b506121938183600261323c9092919063ffffffff16565b50808273ffffffffffffffffffffffffffffffffffffffff168473ffffffffffffffffffffffffffffffffffffffff167fddf252ad1be2c89b69c2b068fc378daa952ba7f163c4a11628f55a4df523b3ef60405160405180910390a4505050565b60008073ffffffffffffffffffffffffffffffffffffffff16600b60009054906101000a900473ffffffffffffffffffffffffffffffffffffffff1673ffffffffffffffffffffffffffffffffffffffff16148061227c5750600061227a600b60009054906101000a900473ffffffffffffffffffffffffffffffffffffffff16613271565b145b1561228d5761228b600061327c565b505b600b60009054906101000a900473ffffffffffffffffffffffffffffffffffffffff1673ffffffffffffffffffffffffffffffffffffffff166338cc48316040518163ffffffff1660e01b8152600401602060405180830381600087803b1580156122f757600080fd5b505af115801561230b573d6000803e3d6000fd5b505050506040513d602081101561232157600080fd5b810190808051906020019092919050505073ffffffffffffffffffffffffffffffffffffffff16600a60009054906101000a900473ffffffffffffffffffffffffffffffffffffffff1673ffffffffffffffffffffffffffffffffffffffff161461246c57600b60009054906101000a900473ffffffffffffffffffffffffffffffffffffffff1673ffffffffffffffffffffffffffffffffffffffff166338cc48316040518163ffffffff1660e01b8152600401602060405180830381600087803b1580156123f057600080fd5b505af1158015612404573d6000803e3d6000fd5b505050506040513d602081101561241a57600080fd5b8101908080519060200190929190505050600a60006101000a81548173ffffffffffffffffffffffffffffffffffffffff021916908373ffffffffffffffffffffffffffffffffffffffff1602179055505b600a60009054906101000a900473ffffffffffffffffffffffffffffffffffffffff1673ffffffffffffffffffffffffffffffffffffffff1663c281d19e6040518163ffffffff1660e01b8152600401602060405180830381600087803b1580156124d657600080fd5b505af11580156124ea573d6000803e3d6000fd5b505050506040513d602081101561250057600080fd5b8101908080519060200190929190505050905090565b6000606083905060008060005b835181101561260057603084828151811061253a57fe5b602001015160f81c60f81b60f81c60ff16101580156125765750603984828151811061256257fe5b602001015160f81c60f81b60f81c60ff1611155b156125c857811561259957600086141561258f57612600565b8580600190039650505b600a8302925060308482815181106125ad57fe5b602001015160f81c60f81b60f81c60ff1603830192506125f3565b602e8482815181106125d657fe5b602001015160f81c60f81b60f81c60ff1614156125f257600191505b5b8080600101915050612523565b5060008511156126135784600a0a820291505b81935050505092915050565b600061262e836000018361328d565b60001c905092915050565b60008060008061264c8660000186613310565b915091508160001c8160001c9350935050509250929050565b6000612678846000018460001b846133a9565b60001c90509392505050565b60008073ffffffffffffffffffffffffffffffffffffffff16600b60009054906101000a900473ffffffffffffffffffffffffffffffffffffffff1673ffffffffffffffffffffffffffffffffffffffff16148061270c5750600061270a600b60009054906101000a900473ffffffffffffffffffffffffffffffffffffffff16613271565b145b1561271d5761271b600061327c565b505b600b60009054906101000a900473ffffffffffffffffffffffffffffffffffffffff1673ffffffffffffffffffffffffffffffffffffffff166338cc48316040518163ffffffff1660e01b8152600401602060405180830381600087803b15801561278757600080fd5b505af115801561279b573d6000803e3d6000fd5b505050506040513d60208110156127b157600080fd5b810190808051906020019092919050505073ffffffffffffffffffffffffffffffffffffffff16600a60009054906101000a900473ffffffffffffffffffffffffffffffffffffffff1673ffffffffffffffffffffffffffffffffffffffff16146128fc57600b60009054906101000a900473ffffffffffffffffffffffffffffffffffffffff1673ffffffffffffffffffffffffffffffffffffffff166338cc48316040518163ffffffff1660e01b8152600401602060405180830381600087803b15801561288057600080fd5b505af1158015612894573d6000803e3d6000fd5b505050506040513d60208110156128aa57600080fd5b8101908080519060200190929190505050600a60006101000a81548173ffffffffffffffffffffffffffffffffffffffff021916908373ffffffffffffffffffffffffffffffffffffffff1602179055505b600a60009054906101000a900473ffffffffffffffffffffffffffffffffffffffff1673ffffffffffffffffffffffffffffffffffffffff1663524f3889836040518263ffffffff1660e01b81526004018080602001828103825283818151815260200191508051906020019080838360005b8381101561298a57808201518184015260208101905061296f565b50505050905090810190601f1680156129b75780820380516001836020036101000a031916815260200191505b5092505050602060405180830381600087803b1580156129d657600080fd5b505af11580156129ea573d6000803e3d6000fd5b505050506040513d6020811015612a0057600080fd5b81019080805190602001909291905050509050919050565b60008073ffffffffffffffffffffffffffffffffffffffff16600b60009054906101000a900473ffffffffffffffffffffffffffffffffffffffff1673ffffffffffffffffffffffffffffffffffffffff161480612aa057506000612a9e600b60009054906101000a900473ffffffffffffffffffffffffffffffffffffffff16613271565b145b15612ab157612aaf600061327c565b505b600b60009054906101000a900473ffffffffffffffffffffffffffffffffffffffff1673ffffffffffffffffffffffffffffffffffffffff166338cc48316040518163ffffffff1660e01b8152600401602060405180830381600087803b158015612b1b57600080fd5b505af1158015612b2f573d6000803e3d6000fd5b505050506040513d6020811015612b4557600080fd5b810190808051906020019092919050505073ffffffffffffffffffffffffffffffffffffffff16600a60009054906101000a900473ffffffffffffffffffffffffffffffffffffffff1673ffffffffffffffffffffffffffffffffffffffff1614612c9057600b60009054906101000a900473ffffffffffffffffffffffffffffffffffffffff1673ffffffffffffffffffffffffffffffffffffffff166338cc48316040518163ffffffff1660e01b8152600401602060405180830381600087803b158015612c1457600080fd5b505af1158015612c28573d6000803e3d6000fd5b505050506040513d6020811015612c3e57600080fd5b8101908080519060200190929190505050600a60006101000a81548173ffffffffffffffffffffffffffffffffffffffff021916908373ffffffffffffffffffffffffffffffffffffffff1602179055505b6000600a60009054906101000a900473ffffffffffffffffffffffffffffffffffffffff1673ffffffffffffffffffffffffffffffffffffffff1663524f3889856040518263ffffffff1660e01b81526004018080602001828103825283818151815260200191508051906020019080838360005b83811015612d20578082015181840152602081019050612d05565b50505050905090810190601f168015612d4d5780820380516001836020036101000a031916815260200191505b5092505050602060405180830381600087803b158015612d6c57600080fd5b505af1158015612d80573d6000803e3d6000fd5b505050506040513d6020811015612d9657600080fd5b8101908080519060200190929190505050905062030d403a02670de0b6b3a764000001811115612dcc576000801b915050612f5c565b600a60009054906101000a900473ffffffffffffffffffffffffffffffffffffffff1673ffffffffffffffffffffffffffffffffffffffff1663adf59f9982600087876040518563ffffffff1660e01b8152600401808481526020018060200180602001838103835285818151815260200191508051906020019080838360005b83811015612e68578082015181840152602081019050612e4d565b50505050905090810190601f168015612e955780820380516001836020036101000a031916815260200191505b50838103825284818151815260200191508051906020019080838360005b83811015612ece578082015181840152602081019050612eb3565b50505050905090810190601f168015612efb5780820380516001836020036101000a031916815260200191505b50955050505050506020604051808303818588803b158015612f1c57600080fd5b505af1158015612f30573d6000803e3d6000fd5b50505050506040513d6020811015612f4757600080fd5b81019080805190602001909291905050509150505b92915050565b6000612f708260000161349f565b9050919050565b612f918282604051806020016040528060008152506134b0565b5050565b612f9e82611dca565b612ff3576040517f08c379a000000000000000000000000000000000000000000000000000000000815260040180806020018281038252602c81526020018061482d602c913960400191505060405180910390fd5b8060086000848152602001908152602001600020908051906020019061301a92919061453b565b505050565b61302a848484611fb1565b61303684848484613521565b61308b576040517f08c379a00000000000000000000000000000000000000000000000000000000081526004018080602001828103825260328152602001806145fb6032913960400191505060405180910390fd5b50505050565b606060008214156130d9576040518060400160405280600181526020017f300000000000000000000000000000000000000000000000000000000000000081525090506131d3565b600082905060005b60008214613103578080600101915050600a82816130fb57fe5b0491506130e1565b60608167ffffffffffffffff8111801561311c57600080fd5b506040519080825280601f01601f19166020018201604052801561314f5781602001600182028036833780820191505090505b50905060006001830390508593505b600084146131cb57600a848161317057fe5b0660300160f81b8282806001900393508151811061318a57fe5b60200101907effffffffffffffffffffffffffffffffffffffffffffffffffffffffffffff1916908160001a905350600a84816131c357fe5b04935061315e565b819450505050505b919050565b60006131ea836000018360001b61373a565b905092915050565b600081600001805490509050919050565b505050565b600061321a836000018360001b61375d565b905092915050565b6000613234836000018360001b613845565b905092915050565b6000613268846000018460001b8473ffffffffffffffffffffffffffffffffffffffff1660001b6138b5565b90509392505050565b6000813b9050919050565b6000613286613991565b9050919050565b6000818360000180549050116132ee576040517f08c379a00000000000000000000000000000000000000000000000000000000081526004018080602001828103825260228152602001806145d96022913960400191505060405180910390fd5b8260000182815481106132fd57fe5b9060005260206000200154905092915050565b60008082846000018054905011613372576040517f08c379a00000000000000000000000000000000000000000000000000000000081526004018080602001828103825260228152602001806147df6022913960400191505060405180910390fd5b600084600001848154811061338357fe5b906000526020600020906002020190508060000154816001015492509250509250929050565b60008084600101600085815260200190815260200160002054905060008114158390613470576040517f08c379a00000000000000000000000000000000000000000000000000000000081526004018080602001828103825283818151815260200191508051906020019080838360005b8381101561343557808201518184015260208101905061341a565b50505050905090810190601f1680156134625780820380516001836020036101000a031916815260200191505b509250505060405180910390fd5b5084600001600182038154811061348357fe5b9060005260206000209060020201600101549150509392505050565b600081600001805490509050919050565b6134ba838361406a565b6134c76000848484613521565b61351c576040517f08c379a00000000000000000000000000000000000000000000000000000000081526004018080602001828103825260328152602001806145fb6032913960400191505060405180910390fd5b505050565b60006135428473ffffffffffffffffffffffffffffffffffffffff1661425e565b61354f5760019050613732565b60606136b963150b7a0260e01b613564611de7565b888787604051602401808573ffffffffffffffffffffffffffffffffffffffff1681526020018473ffffffffffffffffffffffffffffffffffffffff16815260200183815260200180602001828103825283818151815260200191508051906020019080838360005b838110156135e85780820151818401526020810190506135cd565b50505050905090810190601f1680156136155780820380516001836020036101000a031916815260200191505b5095505050505050604051602081830303815290604052907bffffffffffffffffffffffffffffffffffffffffffffffffffffffff19166020820180517bffffffffffffffffffffffffffffffffffffffffffffffffffffffff83818316178352505050506040518060600160405280603281526020016145fb603291398773ffffffffffffffffffffffffffffffffffffffff166142719092919063ffffffff16565b905060008180602001905160208110156136d257600080fd5b8101908080519060200190929190505050905063150b7a0260e01b7bffffffffffffffffffffffffffffffffffffffffffffffffffffffff1916817bffffffffffffffffffffffffffffffffffffffffffffffffffffffff191614925050505b949350505050565b600080836001016000848152602001908152602001600020541415905092915050565b6000808360010160008481526020019081526020016000205490506000811461383957600060018203905060006001866000018054905003905060008660000182815481106137a857fe5b90600052602060002001549050808760000184815481106137c557fe5b90600052602060002001819055506001830187600101600083815260200190815260200160002081905550866000018054806137fd57fe5b6001900381819060005260206000200160009055905586600101600087815260200190815260200160002060009055600194505050505061383f565b60009150505b92915050565b60006138518383614289565b6138aa5782600001829080600181540180825580915050600190039060005260206000200160009091909190915055826000018054905083600101600084815260200190815260200160002081905550600190506138af565b600090505b92915050565b600080846001016000858152602001908152602001600020549050600081141561395c5784600001604051806040016040528086815260200185815250908060018154018082558091505060019003906000526020600020906002020160009091909190915060008201518160000155602082015181600101555050846000018054905085600101600086815260200190815260200160002081905550600191505061398a565b8285600001600183038154811061396f57fe5b90600052602060002090600202016001018190555060009150505b9392505050565b6000806139b1731d3b2638a7cc9f2cb3d298a3da7a90b67e5506ed613271565b1115613a5357731d3b2638a7cc9f2cb3d298a3da7a90b67e5506ed600b60006101000a81548173ffffffffffffffffffffffffffffffffffffffff021916908373ffffffffffffffffffffffffffffffffffffffff160217905550613a4a6040518060400160405280600b81526020017f6574685f6d61696e6e65740000000000000000000000000000000000000000008152506142ac565b60019050614067565b6000613a7273c03a2615d5efaf5f49f60b7bb6583eaec212fdf1613271565b1115613b145773c03a2615d5efaf5f49f60b7bb6583eaec212fdf1600b60006101000a81548173ffffffffffffffffffffffffffffffffffffffff021916908373ffffffffffffffffffffffffffffffffffffffff160217905550613b0b6040518060400160405280600c81526020017f6574685f726f707374656e3300000000000000000000000000000000000000008152506142ac565b60019050614067565b6000613b3373b7a07bcf2ba2f2703b24c0691b5278999c59ac7e613271565b1115613bd55773b7a07bcf2ba2f2703b24c0691b5278999c59ac7e600b60006101000a81548173ffffffffffffffffffffffffffffffffffffffff021916908373ffffffffffffffffffffffffffffffffffffffff160217905550613bcc6040518060400160405280600981526020017f6574685f6b6f76616e00000000000000000000000000000000000000000000008152506142ac565b60019050614067565b6000613bf473146500cfd35b22e4a392fe0adc06de1a1368ed48613271565b1115613c965773146500cfd35b22e4a392fe0adc06de1a1368ed48600b60006101000a81548173ffffffffffffffffffffffffffffffffffffffff021916908373ffffffffffffffffffffffffffffffffffffffff160217905550613c8d6040518060400160405280600b81526020017f6574685f72696e6b6562790000000000000000000000000000000000000000008152506142ac565b60019050614067565b6000613cb573a2998efd205fb9d4b4963afb70778d6354ad3a41613271565b1115613d575773a2998efd205fb9d4b4963afb70778d6354ad3a41600b60006101000a81548173ffffffffffffffffffffffffffffffffffffffff021916908373ffffffffffffffffffffffffffffffffffffffff160217905550613d4e6040518060400160405280600a81526020017f6574685f676f65726c69000000000000000000000000000000000000000000008152506142ac565b60019050614067565b6000613d767390a0f94702c9630036fb9846b52bf31a1c991a84613271565b1115613e18577390a0f94702c9630036fb9846b52bf31a1c991a84600b60006101000a81548173ffffffffffffffffffffffffffffffffffffffff021916908373ffffffffffffffffffffffffffffffffffffffff160217905550613e0f6040518060400160405280600b81526020017f6273635f6d61696e6e65740000000000000000000000000000000000000000008152506142ac565b60019050614067565b6000613e3773816ec2af1b56183f82f8c05759e99fec3c3de609613271565b1115613ed95773816ec2af1b56183f82f8c05759e99fec3c3de609600b60006101000a81548173ffffffffffffffffffffffffffffffffffffffff021916908373ffffffffffffffffffffffffffffffffffffffff160217905550613ed06040518060400160405280600f81526020017f706f6c79676f6e5f6d61696e6e657400000000000000000000000000000000008152506142ac565b60019050614067565b6000613ef8736f485c8bf6fc43ea212e93bbf8ce046c7f1cb475613271565b1115613f5c57736f485c8bf6fc43ea212e93bbf8ce046c7f1cb475600b60006101000a81548173ffffffffffffffffffffffffffffffffffffffff021916908373ffffffffffffffffffffffffffffffffffffffff16021790555060019050614067565b6000613f7b7320e12a1f859b3feae5fb2a0a32c18f5a65555bbf613271565b1115613fdf577320e12a1f859b3feae5fb2a0a32c18f5a65555bbf600b60006101000a81548173ffffffffffffffffffffffffffffffffffffffff021916908373ffffffffffffffffffffffffffffffffffffffff16021790555060019050614067565b6000613ffe7351efaf4c8b3c9afbd5ab9f4bbc82784ab6ef8faa613271565b1115614062577351efaf4c8b3c9afbd5ab9f4bbc82784ab6ef8faa600b60006101000a81548173ffffffffffffffffffffffffffffffffffffffff021916908373ffffffffffffffffffffffffffffffffffffffff16021790555060019050614067565b600090505b90565b600073ffffffffffffffffffffffffffffffffffffffff168273ffffffffffffffffffffffffffffffffffffffff16141561410d576040517f08c379a00000000000000000000000000000000000000000000000000000000081526004018080602001828103825260208152602001807f4552433732313a206d696e7420746f20746865207a65726f206164647265737381525060200191505060405180910390fd5b61411681611dca565b15614189576040517f08c379a000000000000000000000000000000000000000000000000000000000815260040180806020018281038252601c8152602001807f4552433732313a20746f6b656e20616c7265616479206d696e7465640000000081525060200191505060405180910390fd5b61419560008383613203565b6141e681600160008573ffffffffffffffffffffffffffffffffffffffff1673ffffffffffffffffffffffffffffffffffffffff16815260200190815260200160002061322290919063ffffffff16565b506141fd8183600261323c9092919063ffffffff16565b50808273ffffffffffffffffffffffffffffffffffffffff16600073ffffffffffffffffffffffffffffffffffffffff167fddf252ad1be2c89b69c2b068fc378daa952ba7f163c4a11628f55a4df523b3ef60405160405180910390a45050565b600080823b905060008111915050919050565b606061428084846000856142c6565b90509392505050565b600080836001016000848152602001908152602001600020541415905092915050565b80600c90805190602001906142c292919061453b565b5050565b606082471015614321576040517f08c379a00000000000000000000000000000000000000000000000000000000081526004018080602001828103825260268152602001806146d16026913960400191505060405180910390fd5b61432a8561425e565b61439c576040517f08c379a000000000000000000000000000000000000000000000000000000000815260040180806020018281038252601d8152602001807f416464726573733a2063616c6c20746f206e6f6e2d636f6e747261637400000081525060200191505060405180910390fd5b600060608673ffffffffffffffffffffffffffffffffffffffff1685876040518082805190602001908083835b602083106143ec57805182526020820191506020810190506020830392506143c9565b6001836020036101000a03801982511681845116808217855250505050505090500191505060006040518083038185875af1925050503d806000811461444e576040519150601f19603f3d011682016040523d82523d6000602084013e614453565b606091505b509150915061446382828661446f565b92505050949350505050565b6060831561447f57829050614534565b6000835111156144925782518084602001fd5b816040517f08c379a00000000000000000000000000000000000000000000000000000000081526004018080602001828103825283818151815260200191508051906020019080838360005b838110156144f95780820151818401526020810190506144de565b50505050905090810190601f1680156145265780820380516001836020036101000a031916815260200191505b509250505060405180910390fd5b9392505050565b828054600181600116156101000203166002900490600052602060002090601f016020900481019282601f1061457c57805160ff19168380011785556145aa565b828001600101855582156145aa579182015b828111156145a957825182559160200191906001019061458e565b5b5090506145b791906145bb565b5090565b5b808211156145d45760008160009055506001016145bc565b509056fe456e756d657261626c655365743a20696e646578206f7574206f6620626f756e64734552433732313a207472616e7366657220746f206e6f6e20455243373231526563656976657220696d706c656d656e74657250726f7661626c65207175657279207761732073656e742c207374616e64696e6720627920666f722074686520616e737765722e2e50726f7661626c6520717565727920776173204e4f542073656e742c20706c656173652061646420736f6d652045544820746f20636f76657220666f7220746865207175657279206665654552433732313a207472616e7366657220746f20746865207a65726f2061646472657373416464726573733a20696e73756666696369656e742062616c616e636520666f722063616c6c54656d7065726174757265207072696365206973206c6f77202d20596f752061726520756e61626c6520746f206d696e744552433732313a206f70657261746f7220717565727920666f72206e6f6e6578697374656e7420746f6b656e4552433732313a20617070726f76652063616c6c6572206973206e6f74206f776e6572206e6f7220617070726f76656420666f7220616c6c4552433732313a2062616c616e636520717565727920666f7220746865207a65726f20616464726573734552433732313a206f776e657220717565727920666f72206e6f6e6578697374656e7420746f6b656e456e756d657261626c654d61703a20696e646578206f7574206f6620626f756e64734552433732313a20617070726f76656420717565727920666f72206e6f6e6578697374656e7420746f6b656e4552433732314d657461646174613a2055524920736574206f66206e6f6e6578697374656e7420746f6b656e4552433732313a207472616e73666572206f6620746f6b656e2074686174206973206e6f74206f776e4552433732314d657461646174613a2055524920717565727920666f72206e6f6e6578697374656e7420746f6b656e4552433732313a20617070726f76616c20746f2063757272656e74206f776e65725468652073656e646572206973206e6f742050726f7661626c652773207365727665722e4552433732313a207472616e736665722063616c6c6572206973206e6f74206f776e6572206e6f7220617070726f766564a264697066735822122027432ae1395f739390e439cfbbe1a1f4bd3bf14fea993ac85fcd9a7a9c842bbb64736f6c634300060c003350726f7661626c65207175657279207761732073656e742c207374616e64696e6720627920666f722074686520616e737765722e2e50726f7661626c6520717565727920776173204e4f542073656e742c20706c656173652061646420736f6d652045544820746f20636f76657220666f722074686520717565727920666565",
  "immutableReferences": {},
  "source": "pragma solidity ^0.6.0;\r\nimport \"./provableAPI_0.6.sol\";\r\nimport \"@openzeppelin/contracts/token/ERC721/ERC721.sol\";\r\n\r\ncontract temperatureBasedNft is ERC721, usingProvable {\r\n\r\n    uint256 public temperature; // To store the temperature of City\r\n    address public owner;   // To store owner of the Contract\r\n\r\n    constructor(string memory _name,string memory _symbol) public\r\n    ERC721(_name,_symbol){\r\n    owner = msg.sender;\r\n    updateTemperature();         // First check at contract creation.\r\n    }\r\n     \r\n    //  \r\n    modifier onlyOwner() {\r\n        require(msg.sender == owner, \"Not owner\");\r\n    _;\r\n    }\r\n\r\n    modifier onlyProvable() {\r\n    require(msg.sender == provable_cbAddress(), \"The sender is not Provable's server.\");\r\n    _;\r\n    }\r\n     \r\n    // To mint the NFT721 token if Temperature of Mumbai is above 15C(ie1500)\r\n    // else it reverts\r\n\r\n    function mintNft(address _to,uint256 _id,string memory _uri) external onlyOwner\r\n    {\r\n       //updateTemperature();\r\n       require(temperature >= 1500, \"Temperature price is low - You are unable to mint\");\r\n       require(_to != address(0), \"Not valid address\");\r\n       _safeMint(_to,_id);\r\n       _setTokenURI(_id,_uri);\r\n\r\n    }\r\n     \r\n\r\n   event LogUpdated(string temp);\r\n   event LogNewProvableQuery(string description);\r\n  \r\n    // It recevies the result from provable server.\r\n   function __callback(bytes32 myid, string memory result) virtual override public onlyProvable {\r\n      temperature = parseInt(result,2);       // converting the string into unit with two decimal adjusment\r\n      //updateTemperature();\r\n      emit LogUpdated(result);\r\n   }\r\n\r\n\r\n   // ProvableQuery reterives the Temberature of the Mumbai using WolframAlpha Knowledge engine.\r\n   // It uses data source type as WolframAlpha\r\n   function updateTemperature() payable public {\r\n       if (provable_getPrice(\"WolframAlpha\") > address(this).balance) {\r\n           emit LogNewProvableQuery(\"Provable query was NOT sent, please add some ETH to cover for the query fee\");\r\n       } else {\r\n           emit LogNewProvableQuery(\"Provable query was sent, standing by for the answer..\");\r\n           provable_query(\"WolframAlpha\", \"temperature in Mumbai\");\r\n       }\r\n   }\r\n}",
  "sourcePath": "D:\\Arun\\A1\\NFT2\\contracts\\temperatureBasedNft.sol",
  "compiler": {
    "name": "solc",
    "version": "0.6.12+commit.27d51765.Emscripten.clang"
  },
  "schemaVersion": "3.4.4",
  "updatedAt": "2022-09-01T13:33:00.215Z",
  "devdoc": {
    "kind": "dev",
    "methods": {
      "approve(address,uint256)": {
        "details": "See {IERC721-approve}."
      },
      "balanceOf(address)": {
        "details": "See {IERC721-balanceOf}."
      },
      "baseURI()": {
        "details": "Returns the base URI set via {_setBaseURI}. This will be automatically added as a prefix in {tokenURI} to each token's URI, or to the token ID if no specific URI is set for that token ID."
      },
      "getApproved(uint256)": {
        "details": "See {IERC721-getApproved}."
      },
      "isApprovedForAll(address,address)": {
        "details": "See {IERC721-isApprovedForAll}."
      },
      "name()": {
        "details": "See {IERC721Metadata-name}."
      },
      "ownerOf(uint256)": {
        "details": "See {IERC721-ownerOf}."
      },
      "safeTransferFrom(address,address,uint256)": {
        "details": "See {IERC721-safeTransferFrom}."
      },
      "safeTransferFrom(address,address,uint256,bytes)": {
        "details": "See {IERC721-safeTransferFrom}."
      },
      "setApprovalForAll(address,bool)": {
        "details": "See {IERC721-setApprovalForAll}."
      },
      "supportsInterface(bytes4)": {
        "details": "See {IERC165-supportsInterface}. Time complexity O(1), guaranteed to always use less than 30 000 gas."
      },
      "symbol()": {
        "details": "See {IERC721Metadata-symbol}."
      },
      "tokenByIndex(uint256)": {
        "details": "See {IERC721Enumerable-tokenByIndex}."
      },
      "tokenOfOwnerByIndex(address,uint256)": {
        "details": "See {IERC721Enumerable-tokenOfOwnerByIndex}."
      },
      "tokenURI(uint256)": {
        "details": "See {IERC721Metadata-tokenURI}."
      },
      "totalSupply()": {
        "details": "See {IERC721Enumerable-totalSupply}."
      },
      "transferFrom(address,address,uint256)": {
        "details": "See {IERC721-transferFrom}."
      }
    },
    "version": 1
  },
  "userdoc": {
    "kind": "user",
    "methods": {},
    "version": 1
  }
}